:03000000020122D8
:0C012200787FE4F6D8FD75810702000329
:100003007F207E4E75907FE4FDFCC3ED9FEC9E50F8
:10001300070DBD00010C80F27590BFE4FCFDC3ED3C
:100023009FEC9E50070DBD00010C80F27590DFE43C
:10003300FCFDC3ED9FEC9E50070DBD00010C80F24B
:100043007590EFE4FCFDC3ED9FEC9E50070DBD00E2
:10005300010C80F27590F7E4FCFDC3ED9FEC9E501C
:10006300070DBD00010C80F27590FBE4FCFDC3EDB0
:100073009FEC9E50070DBD00010C80F27590FDE4CE
:10008300FCFDC3ED9FEC9E50070DBD00010C80F2FB
:100093007590FEE4FCFDC3ED9FEC9E50070DBD0083
:1000A300010C80F27590FDE4FCFDC3ED9FEC9E50C6
:1000B300070DBD00010C80F27590FBE4FCFDC3ED60
:1000C3009FEC9E50070DBD00010C80F27590F7E484
:1000D300FCFDC3ED9FEC9E50070DBD00010C80F2AB
:1000E3007590EFE4FCFDC3ED9FEC9E50070DBD0042
:1000F300010C80F27590DFE4FCFDC3ED9FEC9E5094
:10010300070DBD00010C80F27590BFE4FCFDC3ED4B
:0F0113009FEC9E40030200070DBD00010C80EF22
:00000001FF
