:030000000200CA31
:0C00CA00787FE4F6D8FD75810902000380
:100003007508FEE4F509C3E50994077480948050EC
:1000130024850890E4FF1200A61200847F011200D9
:10002300A6120081AF087801EF08800123D8FDF5FF
:1000330008050980D175087FE4F509C3E50994072C
:10004300748094805024850890E4FF1200A6120067
:10005300847F011200A6120081AF087801EF0880A7
:100063000103D8FDF508050980D1E4FF1200A67F3E
:0E007300F47E011200887F011200A602000632
:070081007590FF7FC87E00AF
:10008800D3EF9400EE940040147D727C00ED1D7057
:0D009800011CED4C70F7EF1F70E61E80E3B9
:0100A5002238
:0200A600AB07A6
:1000A800EB7017FAEAC394C8748094805013B2A313
:1000B8007F017E001200880A80EAEB64017002D298
:0100C800A394
:0100C9002214
:00000001FF
