:0300000002000EED
:0C000E00787FE4F6D8FD75810E02013EFB
:100228003F065B4F666D7D077F6F777C395E79711E
:0C02380076F3380040FEFDFBF7EFDFC05E
:10013E00E4F50BF508F509F50CF50A758D4CF58B04
:10014E00758911D2AFD2A9D2ABD28CD28EE50A600C
:10015E00107F0112001E7D147C007F027E001201B2
:10016E0084E5097F0412001EE50CFD7C007F057EF0
:06017E000012002380D7EF
:03001B000201DF00
:1001DF00C0E0758D4C758B00050BE50B6414701624
:1001EF00F50B0509E509643C700CF509050AE50AEC
:0901FF00643C7002F50AD0E03204
:03000B00020208E6
:10020800C0E0758C4C758A000508E5086402700D1D
:10021800050CE50C640A7002F50C750800D0E03294
:0C01B500F583E493F580C2A67F027E0073
:1001C100D3EF9400EE940040147D727C00ED1D701D
:0D01D100011CED4C70F7EF1F70E61E80E37F
:0101DE0022FE
:100184007580FFD2A7743D2FF58274023EF583E497
:1001940093F580C2A7E4F580D2A674282DF5827465
:1001A400023CF583E493F580C2A67F027E0002013F
:0101B400C189
:05001E00FD7C007E00E6
:100023008E0D8F0EAB05AA04C3EB940AEA9400501D
:10003300497580FFD2A7743E250EF5827402350DF3
:10004300F583E493F580C2A7E4F580D2A690023B42
:100053001201B87580FFD2A7743D250EF582740294
:10006300350DF583E493F580C2A7E4F580D2A67439
:10007300282BF58274023A1201B5C3EB940AEA9471
:100083000040627580FFD2A7743D250EF58274028D
:10009300350DF583E493F580C2A7E4F580D2A6FC81
:1000A3007D0AAF03AE021200E974282DF5827402B3
:1000B3003C1201B57580FFD2A7743C250EF58274FE
:1000C30002350DF583E493F580C2A7E4F580D2A64B
:1000D300AE02AF03FC7D0A1200E974282FF5827487
:0600E300023E1201B522ED
:1000E900BC000BBE0029EF8DF084FFADF022E4CCFB
:1000F900F875F008EF2FFFEE33FEEC33FCEE9DECC4
:10010900984005FCEE9DFE0FD5F0E9E4CEFD22ED09
:10011900F8F5F0EE8420D21CFEADF075F008EF2F53
:10012900FFED33FD4007985006D5F0F222C398FD44
:050139000FD5F0EA22E1
:00000001FF
