:030000000200916A
:0C009100787FE4F6D8FD758109020003B9
:100003007508FEE4F509C3E50994077480948050EC
:100013001C12006AD2A37590FF12006FAF0878011B
:10002300EF08800123D8FDF508050980D975087FFD
:10003300E4F509C3E509940774809480501C120009
:100043006AD2A37590FF12006FAF087801EF0880A2
:100053000103D8FDF508050980D9C2A37FF47E0109
:07006300120073D2A3809C80
:09006A00850890C2A37FC87E0046
:10007300D3EF9400EE940040147D727C00ED1D706C
:0D008300011CED4C70F7EF1F70E61E80E3CE
:01009000224D
:00000001FF
